:020000022000DC
:1060000000F0002035620200656202006762020053
:10601000696202006B6202006D6202000000000013
:106020000000000000000000000000006F6202009D
:1060300071620200000000007362020075620200DB
:10604000796202007B6202007D62020095EB04002F
:1060500081620200836202005171020087620200C5
:10606000896202008B62020019F403008F62020051
:106070009162020093620200956202009762020040
:1060800099620200A1E2040013E602009F6202008E
:10609000E1E20400A3620200E54A0400A7620200F4
:1060A000A9620200AB620200AD620200AF620200B0
:1060B000B1620200B36202007762020077620200FE
:1060C000B5620200B7620200B9620200BB62020060
:0C60D000BD620200BF620200C16202005B
:1060DC00354936480A1A02D0072291438D46344975
:1060EC0034480A1A06D00722914381F30988022208
:1060FC0082F3148830483149314A00F043F8314872
:10610C003149324A00F03EF831483249324A00F007
:10611C0039F832483249334A00F034F832483349BE
:10612C00334A00F02FF833483349344A00F02AF848
:10613C0033483449344A00F025F8344834490022B5
:10614C0000F02BF833483449002200F026F833488D
:10615C003349091A082903DB00220260043001606C
:10616C001F482049884205D00268043003B4904788
:10617C0003BCF7E700208646EC4600200021294AA4
:10618C009047FEE7884207D0521A05D003780130B9
:10619C000B700131013AF9D17047884202D002707C
:1061AC000130FAE77047000000F0002000E8002002
:1061BC0000F0002000F00020C00B0500C8320020C9
:1061CC002C340020C4620200C46202009CF1040062
:1061DC00C00B0500C8320020C8320020A0F2040019
:1061EC00A0F20400A0F20400A0F20400A0F204004B
:1061FC00A0F20400A0F20400A0F20400BE0B050003
:10620C00240D05002C3400202C3400202C340020CC
:10621C00286C0020286C0020286C0020286C0020A2
:10622C00287000209572020008484FF0070188433F
:10623C008546074880470748016841F470010160B2
:10624C00BFF34F8FBFF36F8FFFF742BF00F00020FB
:10625C00394E040088ED00E0FEE7FEE7FEE7FEE7BE
:10626C00FEE7FEE7FEE7FEE7FEE7FEE7FEE7FEE7FA
:10627C00FEE7FEE7FEE7FEE7FEE7FEE7FEE7FEE7EA
:10628C00FEE7FEE7FEE7FEE7FEE7FEE7FEE7FEE7DA
:10629C00FEE7FEE7FEE7FEE7FEE7FEE7FEE7FEE7CA
:1062AC00FEE7FEE7FEE7FEE7FEE7FEE7FEE7FEE7BA
:0862BC00FEE7FEE7FEE700BF6C
:1062C40080B483B000AF0346FB71094997F90730E6
:1062D4005B09FA7902F01F02012000FA02F241F888
:1062E400232000BF0C37BD465DF8047B704700BF18
:1062F40000E100E080B483B000AF03463960FB7175
:1063040097F90730002B0BDA0D49FB7903F00F03E3
:10631400043B3A68D2B25201D2B20B441A7609E075
:10632400084997F907303A68D2B25201D2B20B4405
:1063340083F8002300BF0C37BD465DF8047B70472B
:1063440000ED00E000E100E080B400AFBFF34F8F48
:106354000549054BDB6803F4E062044B1343CB604F
:10636400BFF34F8F00BFFDE700ED00E00400FA0526
:1063740041DF704700BF184680B483B000AFEFF32D
:1063840010833B603B687B6072B67B6818460C37B1
:10639400BD465DF8047B704780B400AF62B600BFB1
:1063A400BD465DF8047B704780B584B000AF78606B
:1063B400FFF7E2FFF860164B9B68002B1BD1144BD0
:1063C40001229A60134BD3F88020134B1340104AD8
:1063D4001360104B104AC3F880200E4BD3F884305E
:1063E4000B4A53600B4B4FF0FF32C3F884207B6899
:1063F40000221A7002E07B6801221A70FB68002BED
:1064040001D1FFF7C9FF002318461037BD4680BDF0
:10641400686A002000E100E0FC06FFBD80B584B09E
:1064240000AF0346FB710F4B9B68002B15D0FB7923
:10643400002B12D1FFF7A0FFF8600B4A094B1B6831
:106444001360094A074B5B685360064B00229A604D
:10645400FB68002B01D1FFF79FFF0023184610377C
:10646400BD4680BD686A002000E100E080B584B0CC
:1064740000AF78607B68002B0AD0074B43F0010320
:10648400FB607B689B01BB60FB68B868984700E0D1
:1064940000BF1037BD4680BDF0F4040080B483B063
:1064A40000AF78604FF0A04318460C37BD465DF846
:1064B400047B704780B584B000AF7860084611460D
:1064C4001A460346FB700B46BB7013467B703B1D9C
:1064D4001846FFF7E3FFF8607A68F978BB785B0049
:1064E40019437B789B0019433B7E1B0219433B7F76
:1064F4001B041943FB6802F5E07243F8221000BF45
:106504001037BD4680BD80B584B002AF78600B46BD
:10651400FB70FA78002301930023009313460022B2
:1065240000217868FFF7C6FF00BF0837BD4680BD6D
:1065340080B584B000AF78603B1D1846FFF7AEFF0E
:10654400F860F86800F00AF802467B6822FA03F360
:1065540003F0010318461037BD4680BD80B483B0F4
:1065640000AF78607B68D3F8103518460C37BD4609
:106574005DF8047B7047000080B400AF034BD3F890
:1065840004351846BD465DF8047B704700B00040F2
:106594007ADF704700BF18467CDF704700BF18469B
:1065A40080B586B000AF786007F10F031846FFF797
:1065B400FBFE78617B69002B04D00C4A7621786954
:1065C4001EF0C0FF7B689847FB7B1846FFF726FF49
:1065D40038613B69002B04D0044A782138691EF0E5
:1065E400B1FF00BF1837BD4680BD00BFA0F2040054
:1065F40080B483B000AF786039607A683B68D31A9E
:10660400002B03DA3A687B68D31A02E07A683B68A5
:10661400D31A18460C37BD465DF8047B704780B525
:1066240082B000AF78607B68002B0AD04FF47A7098
:10663400FFF71CFF7B68013B7B607B68002BF5D177
:1066440000E000BF0837BD4680BD80B582B000AF12
:1066540078603960786806F08AFA00BF0837BD466A
:1066640080BD80B500AF012028F056FB6420FFF701
:10667400D6FF012028F062FB00BF184680BD000051
:1066840090B58BB002AF344B1B6803F48043002BEE
:1066940014D0324B1B68032B10DD314B002B01D07F
:1066A400304C00E0304CFFF767FF02462F4B00935D
:1066B400134688222146042009F004FE07F11C0336
:1066C400184616F0E9FE244B1B6803F48043002BA4
:1066D40016D0224B1B68032B12DD214B002B01D05B
:1066E400204C00E0204CFFF747FF0246BB8B019390
:1066F4001F4B009313468A222146042009F0E2FD31
:106704003B4600221A605A609A60DA601A615A6144
:106714009A6123237B60FF233B724FF4FA637B610E
:106724004FF4FA73BB6102233B704FF4FA737B603E
:1067340080233B722823FB6005233B744FF4C8730A
:106744007B614FF4C873BB614FF49670FFF767FF2A
:1067540000BF2437BD4690BD383300203C330020B1
:106764006BF304006CF30400C8F2040074F3040037
:1067740090F3040080B489B000AF3B1D00221A607E
:106784005A609A60DA601A615A619A612323BB6085
:10679400FF233B734FF4FA63BB614FF4FA73FB615D
:1067A40001233B714FF4FA73BB60FF233B7328232F
:1067B4003B6105233B754FF4C873BB614FF4C87349
:1067C400FB6100BF2437BD465DF8047B704780B58C
:1067D40000AF002028F0B2FA00BF80BD90B587B0AA
:1067E40002AF7860002028F0A9FA1C4B1B6803F460
:1067F4008043002B18D01A4B1B68032B14DD194B54
:10680400002B01D0184C00E0184CFFF7B5FE0246EF
:106814007B680F331B780193154B00931346BE22FC
:106824002146042009F04EFD7B680F331B785AB2D1
:10683400104B1A70104B002245F69A11184627F097
:10684400BDFDF860FB68BB60BB68002B02D0B86874
:106854001EF016FE00BF1437BD4690BD383300202D
:106864003C3300206BF304006CF30400C8F2040012
:10687400A8F30400303400203434002080B483B002
:1068840000AF7860034B1B7818460C37BD465DF8A3
:10689400047B70477134002090B585B002AF7860F6
:1068A4000B46FB70184B1B6803F48043002B16D077
:1068B400164B1B68032B12DD154B002B01D0154C16
:1068C40000E0154CFFF758FE0246FB780193134B8A
:1068D40000931346CD222146042009F0F3FCFB78F3
:1068E400002B06D0012028F017FA0D4B01221A7054
:1068F40005E0012028F022FA094B00221A70FB78E7
:1069040018460C37BD4690BD383300203C33002078
:106914006BF304006CF30400C8F20400B8F3040041
:106924007134002090B583B002AF104B1B6803F4A0
:106934008043002B14D00E4B1B68032B10DD0D4B32
:10694400002B01D00C4C00E00C4CFFF715FE024666
:106954000B4B00931346E6222146042009F0B2FCB7
:106964000EF09EFD00BF0437BD4690BD38330020B5
:106974003C3300206BF304006CF30400C8F2040001
:10698400D0F3040080B582B000AF78607B681B78D8
:106994001C2B01D1FFF7C6FF7B681B780A2B01D1A2
:1069A400FFF75FFE7B681B78022B01D1FFF759FECE
:1069B40000BF0837BD4680BD80B582B000AF0C4B28
:1069C4001B88BA1D1146184613F060FA0346002BC3
:1069D40006D1FB884FF6FF72934203D1002302E0F5
:1069E400002300E0012318460837BD4680BD00BFE0
:1069F4006034002090B587B002AF7860304B1B68DC
:106A040003F48043002B17D02E4B1B68032B13DD9C
:106A14002D4B002B01D02D4C00E02D4CFFF7ACFD8D
:106A240002467B6801932B4B009313464FF4887204
:106A34002146042009F046FCFFF7BEFF0346002B65
:106A44001CD00023FB607B68012B34D8224B1B78BD
:106A5400002B14BF01230023DBB283F00103DBB25C
:106A640003F00103DAB21C4B1A701B4B1B7805228E
:106A740019461A4826F05AFDF8601DE0104B1B68B1
:106A840003F48043002B17D00E4B1B68032B13DD3C
:106A94000D4B002B01D00D4C00E00D4CFFF76CFDAD
:106AA40002460F4B009313464FF49572214604207F
:106AB40009F008FC00E000BF00BF1437BD4690BDDC
:106AC400383300203C3300206BF304006CF30400E3
:106AD400C8F20400ECF30400723400206034002097
:106AE40000F4040080B584B000AF78607B682F2B7D
:106AF40008DD7B68342B05DC7B68303BFB60F86881
:106B0400FFF778FF00BF1037BD4680BD90B585B054
:106B140002AF78600B46FB7013463B80274B1B6823
:106B240003F48043002B15D0254B1B68002B11DD8B
:106B3400244B002B01D0244C00E0244CFFF71CFD17
:106B44000246234B009313464FF49D7221460120C5
:106B540009F0B8FBFB78012B07D0022B26D0002BC1
:106B640007D11C4B01221A7023E01A4B00221A7021
:106B74001FE0124B1B6803F48043002B18D0104B0A
:106B84001B68002B14DD0F4B002B01D00E4C00E0D2
:106B94000E4CFFF7F1FC02460F4B0093134640F2F4
:106BA4004D122146012009F08DFB01E000BF00E0F9
:106BB40000BF00BF0C37BD4690BD00BF3833002076
:106BC4003C3300206BF304006CF30400C8F20400AF
:106BD40024F404007234002040F4040090B585B01D
:106BE40002AF03463960FB800F4B1B6803F48043FC
:106BF400002B15D00D4B1B68002B11DD0C4B002B0B
:106C040001D00C4C00E00C4CFFF7B6FC02460B4BD9
:106C14000093134640F253122146012009F052FB1F
:106C240000BF0C37BD4690BD383300203C330020F4
:106C34006BF304006CF30400C8F2040054F4040081
:106C440090B587B002AF334B1B6803F48043002B2D
:106C540015D0314B1B68032B11DD304B002B01D0B9
:106C64002F4C00E02F4CFFF787FC02462E4B00937D
:106C740013464FF4AC722146042009F023FB2B4B3E
:106C84002B4A5A60294B2B4A9A600021274826F048
:106C94008FFDF860FB68002B05D0224A40F25B119F
:106CA400F8681EF04FFC214B1B88184613F07AFA43
:106CB400B860BB68002B05D01A4A4FF4AE71B868AF
:106CC4001EF040FC1C4B1D4A5A601B4B1C4A9A6028
:106CD4000121194826F0FAFB78607B68002B05D067
:106CE400104A4FF4B07178681EF02CFC124B1B88CC
:106CF400184613F057FA38603B68002B05D0094A50
:106D040040F2611138681EF01DFC00BF1437BD4607
:106D140090BD00BF383300203C3300206BF30400E7
:106D24006CF30400C8F2040070F40400543400202E
:106D3400816802009D68020060340020116B02002B
:106D4400E16B020080B590B000AF1D4B1B687B6205
:106D540007F1240107F128030422184600F030FB50
:106D6400F863FB6B002B05D0164A4FF4B571F86B32
:106D74001EF0E8FB3B4624220021184628F0A8F91F
:106D840001233B700723FB7007233B7207F12803A1
:106D9400FB600D4B3B610D4B3B623B460C49184677
:106DA4000EF082FAB863BB6B002B05D0054A40F2A3
:106DB4007311B86B1EF0C6FB00BF4037BD4680BDE3
:106DC40090F40400C8F2040089690200456C0200D2
:106DD4007034002080B586B000AF3B78012262F3A6
:106DE40003033B703B78012262F307133B703B467D
:106DF400062217491846FFF7CFFB78617B693B6190
:106E04003B69002B02D038691EF03AFB3B1D082277
:106E14000021184628F05CF9C823BB804FF448735E
:106E2400FB8000233B814FF4C8737B813B1D1846D4
:106E3400FFF7AEFB78617B69FB60FB68002B02D037
:106E4400F8681EF01DFB00BF1837BD4680BD00BFAB
:106E540094F4040090B589B002AF294A07214FF495
:106E6400C04009F013FA274B1B6803F48043002B3E
:106E740015D0254B1B68032B11DD244B002B01D0AF
:106E8400234C00E0234CFFF777FB0246224B009390
:106E9400134640F291122146042009F013FA1DF022
:106EA40063FD78617B693B613B69002B02D03869E3
:106EB4001EF0E6FA00237B603B1D194601201DF0FD
:106EC40091FE78617B69FB60FB68002B02D0F86857
:106ED4001EF0D6FA3B1D18461DF012FF78617B693F
:106EE400BB60BB68002B02D0B8681EF0C9FAFFF77C
:106EF40071FFFFF727FF00BF1C37BD4690BD00BFE1
:106F040055020300383300203C3300206BF30400A7
:106F14006CF30400C8F204009CF404002DE9F0436F
:106F240093B004AF6421624800F0F4F90EF016FA4D
:106F340038633B6B002B05D05E4A4FF4D571386B38
:106F44001EF000FB5C4B1B7883F00103DBB2002BCB
:106F540020D03B4600221A605A609A60DA601A61B7
:106F64005A61564B3B60564B7B60564BBB60564B4D
:106F7400FB60564B7B613B46184600F093FBF8627E
:106F8400FB6A002B1BD04B4A40F2B711F86A1EF083
:106F9400D9FA14E003211E20FFF7B5FA1E20FFF7EB
:106FA400C7FA0346002B07D10EF050FA4FF4FA70DB
:106FB400FFF735FBFFF7B6FC6420FFF730FB00F06A
:106FC40017FDB862424B1B6803F48043002B69D061
:106FD400404B1B68032B65DD6B461E4610237B620A
:106FE4007B6A5B00591C0B46013B3B620A464FF02F
:106FF40000034FEAC30949EA52794FEAC2080A4634
:107004004FF00003DD0045EA5275D400CB1DDB08C8
:10701400DB00ADEB030D04AB0033FB6100237B63AA
:1070240020E0BA6A7B6B13441B78FB767B6B5B00B6
:10703400294A1168FA7E1209D2B202F00F020A44F8
:107044001178FA69D1547B6B5B000133224A1168D1
:10705400FA7E02F00F020A441178FA69D1547B6B6C
:1070640001337B637A6B7B6A9A42DAD37B6A5B0077
:10707400FA690021D154194B002B01D0184C00E0BF
:107084000C4CFFF779FA0246FB690293154B019306
:10709400154B009313464FF4EE722146042009F079
:1070A40011F9B54600BF3C37BD46BDE8F08300BFCB
:1070B400E96A0200C8F20400703400208566020008
:1070C40079670200D3670200E1670200F8F4040064
:1070D400383300203C330020343300206BF30400A9
:1070E4006CF30400D4F40400E4F4040080B584B028
:1070F40000AFF860B9607A60FFF726F97A68B9687A
:10710400F8681EF0D3F900BF1037BD4680BD0000FB
:1071140080B500AF4FF0A0430A4AC3F878270A4B62
:107124004FF00042C3F80423074B0022C3F87C212C
:1071340007210620FFF7DEF80620FFF7C1F8002339
:10714400184680BD0C0003000060004080B500AF0D
:107154000D4B0022C3F87C210C4B1A680C4BD3F85E
:10716400043519461046FFF743FA024643F2333317
:107174009A4207D9064BD3F80435044A1360002019
:10718400FFF738FC00BF80BD006000402C340020B5
:1071940000B0004080B485B000AF00231846143717
:1071A400BD465DF8047B704780B584B000AF002312
:1071B400BB60012027F01EFE0023FB6006E0FB6895
:1071C400184627F0BBFDFB680133FB60FB68022B0C
:1071D400F5DDBB687B607B68002B02D078681EF00D
:1071E4004FF900BF1037BD4680BD000080B584B0A4
:1071F40000AF7860002027F08FFD6420FFF70FFABE
:10720400002027F09BFD0E4B93F90030DBB2013BCD
:10721400DBB25AB20A4B1A70094B93F90030002BB7
:107224000ADC084B184627F0FDF8F860FB68002BD1
:1072340002D0F8681EF024F900BF1037BD4680BDA7
:10724400303400203434002080B584B000AF27F0FF
:107254004BF8F860FB68BB60BB68002B02D0B868D1
:107264001EF00EF9084A0121084827F073F8F86067
:10727400FB687B607B68002B02D078681EF000F905
:1072840000BF1037BD4680BDF1710200ECF404006C
:1072940080B584B000AF0023FB60FB68BB60BB68B3
:1072A400002B02D0B8681EF0EBF8FFF7CDFFFFF714
:1072B4007BFFFFF76FFFF860FB687B607B68002B48
:1072C40002D078681EF0DCF8FFF7C4FD0348FFF72E
:1072D40067F9FFF71DFFFFF74BF8FCE7216F02008A
:1072E40080B584B000AF7860094B1B68002B0BD0CD
:1072F4001AF0A6FBF860FB68002B04DB044B1B6848
:10730400F8689847F4E700BF00BF1037BD4680BD5A
:10731400743400202DE9F04385B000AF7860396003
:10732400224A7B681360224A0121224827F012F87E
:10733400F860FB68002B04D01F4A4621F8681EF051
:1073440001F91E4E3B681A464FF00003550CD40356
:1073540041F26F724FF00003AB4208BFA24211D258
:107364003B684FF000044FEA53494FEAC3384FF4E7
:107374007A724FF000034046494627F051FD034618
:107384000C4600E0052300221946304627F016F883
:10739400B860BB68002B04D0074A4721B8681EF0C8
:1073A400D1F800BF1437BD46BDE8F0837434002023
:1073B400E572020008F504000CF50400783400209E
:1073C40080B584B000AFF860B9601346FB71FB79F7
:1073D400082B01D9092317E0FB791A46B968F86824
:1073E40027F04CFEFB79FA68D018FB79C3F1080347
:1073F4001A46002127F06CFEFB6808330822044972
:10740400184627F03BFE002318461037BD4680BDC2
:107414006000001080B400AF06231846BD465DF836
:10742400047B704780B584B000AF786000233B8153
:10743400064BFB6007F108031A46796844F2020020
:10744400FFF754FE00BF1037BD4680BD8CF5040025
:1074540080B58EB000AF03463960FB71404B1B789A
:1074640083F00103DBB2002B72D1FB79012B02D034
:10747400032B61D071E000237B6107F114031946EB
:1074840001201DF0AFFB78637B6B3B633B6B002BF0
:1074940002D0386B1DF0F4FF07F1140318461DF0F9
:1074A4002FFC78637B6BFB62FB6A002B02D0F86ACB
:1074B4001DF0E6FF0123FB6007F10C0207F1120344
:1074C4001146184616F04AFEB862BB6A002B02D079
:1074D400B86A1DF0D5FF7B8A184616F051FA0346A8
:1074E4001A4607F10B031946104616F0B5FB7862ED
:1074F4007B6A002B02D0786A1DF0C2FF10F070F98D
:10750400FB7A1946002010F0EBFA05F061FA786373
:107514007B6B3B623B6A002B02D0386A1DF0B0FFE4
:107524000F4B00221A700F4B1B68002B12D00D4B0F
:107534001B68984700BF0DE01DF016FAF861FB695F
:10754400BB61BB69002B07D0B8691DF099FF03E04C
:1075540000BF02E000BF00E000BF3837BD4680BD79
:1075640098340020B436002080B584B000AF0E4BB0
:1075740001221A7005F094FAF860FB68BB60BB68DE
:10758400002B02D0B8681DF07BFF1DF041FAF860B3
:10759400FB687B607B68002B02D078681DF070FF6D
:1075A40000BF1037BD4680BD9834002080B500AFC1
:1075B400044B19690323002203481EF02BFF0346E2
:1075C400184680BDB4360020CC36002080B586B085
:1075D40000AF78600023FB757B681B78013B092BA7
:1075E40053D801A252F823F08776020015760200E0
:1075F4008F7602008F760200797602008F76020081
:10760400357602008F7602008F76020053760200F0
:10761400214B1B7883F00103DBB2002B05D0FFF76D
:10762400C5FF1E4B5B68984732E0FFF79DFF2FE0D4
:107634001A4B5B691022194619481EF082FF386103
:107644003B69002B23D038691DF01AFF1FE07B68CB
:10765400DA687B689B68194610460DF099FEF8605D
:10766400FB68002B02D0F8681DF00AFF0A4B0122C8
:107674001A700DE0094BDB687A68D26810469847A7
:1076840006E0064B9B68984702E000BF00E000BF9D
:1076940000BF1837BD4680BD60380020B4360020D6
:1076A400CC360020B0B58CB002AF78602F4A07F119
:1076B400080307CA03C31A800233120C1A702C4A37
:1076C4007B6814461D460FCD0FC495E8030084E87B
:1076D4000300274B5B69002B01D1072341E02549B7
:1076E40025481EF089FE78627B6A002B01D07B6AF4
:1076F40037E007F10802214B009313461D4A1E4947
:107704001F481EF0E8FD38623B6A002B01D03B6A3B
:1077140027E01C4820F094FC0346194618481EF044
:1077240043FEF861FB69002B01D0FB6919E01648A0
:1077340020F0A8FFB861BB69002B01D0BB6910E041
:10774400114820F0E1FF034619460D481EF02CFEB7
:1077540078617B69002B01D07B6902E0FFF726FF8B
:10776400034618462837BD46B0BD00BF90F5040057
:10777400B43600204038002000380020D1750200C3
:10778400CC3600209C3400206436002072DF704721
:1077940000BF184673DF704700BF184674DF704798
:1077A40000BF184680B5A8B000AF03463960FB801F
:1077B40013467B71102200214C4827F089FC4C4B66
:1077C4001B781A4613465B019B1A4A4A1344474ADC
:1077D4001360474B1B781A4613465B019B1A464AB3
:1077E4001344424A9360414B1F229A803F4B1F220D
:1077F4009A813F4B1B780133DBB203F00103DAB209
:107804003B4B1A7007F154033C220021184627F021
:107814005FFC062387F85730FB88A7F85030012314
:1078240087F852300123A7F8643007F15003BB6690
:10783400FB88A7F844307B799BB2A7F848303B68B3
:10784400FB6407F14403FB67012387F8803007F1E9
:1078540008033C220021184627F03AFC02233B721D
:10786400224B196807F15403244A18461CF00CFDF6
:10787400C7F89800D7F89830002B03D0D7F89800B1
:107884001DF0FEFD194B996807F108031C4A1846C0
:107894001CF0FAFCC7F89400D7F89430002B03D0FE
:1078A400D7F894001DF0ECFD164A10491648FFF76E
:1078B4006DFFC7F89C00D7F89C30082B06D1002236
:1078C4000A491148FFF762FFC7F89C00D7F89C30BB
:1078D400C7F89030D7F89030002B03D0D7F8900039
:1078E4001DF0CEFD00BFA037BD4680BD643800202A
:1078F400F238002074380020B438002068380020A2
:1079040070380020CC320020C832002080B483B00C
:1079140000AF786039607B689BB21A4692001344CA
:107924005B009AB2054B9A81044A3B68936000BF9E
:107934000C37BD465DF8047B704700BFCC32002095
:1079440080B582B000AF094B1B7801211846FFF7C0
:1079540021FF78607B68002B02D078681DF090FDD1
:1079640006F084FC00BF0837BD4680BDC832002045
:1079740080B582B000AF084B1B781846FFF70EFFA6
:1079840078607B68002B02D078681DF079FD00BF19
:107994000837BD4680BD00BFC832002090B482B015
:1079A40000AF7860064A7B681446186859689A687C
:1079B400DB680FC400BF0837BD4690BC704700BFEA
:1079C400F438002080B500AF08220549054827F0A7
:1079D40055FB08220449054827F050FB00BF80BD31
:1079E40060000010F4380020A4000010FC380020CF
:1079F40080B400AF024B1846BD465DF8047B704767
:107A0400F438002080B483B000AF00237B6013E01F
:107A14000F4A7B68DB00134400225A800C4A7B68BF
:107A2400DB00134400225A60094A7B68002102F8F3
:107A340033107B6801337B607B681F2BE8D9054BCF
:107A440000221A6000BF0C37BD465DF8047B704706
:107A540004390020043A002080B485B000AF034606
:107A64003960FB801B4B1B68FB600023BB6026E076
:107A7400FB685A1EFA60002B01D11F23FB60164AD3
:107A8400FB6812F8333083F00103DBB2002B01D022
:107A9400002318E0104AFB68DB0013445B88FA8873
:107AA4009A4209D10C4AFB68DB0013445A683B68CC
:107AB4009A4201D1012306E0BB680133BB60BB6875
:107AC4001F2BD5D9002318461437BD465DF8047B17
:107AD400704700BF043A00200439002080B483B00A
:107AE40000AF03463960FB80124B1B68124ADB006F
:107AF4001344FA885A800F4B1B680F4ADB00134467
:107B04003A685A600B4B1B680B4A012102F8331088
:107B1400084B1B680133074A1360064B1B68202B74
:107B240002D1044B00221A6000BF0C37BD465DF839
:107B3400047B7047043A00200439002080B400AF6D
:107B4400034BD3F804351846BD465DF8047B7047F3
:107B540000B0004080B483B000AF78607B68043329
:107B640018460C37BD465DF8047B704780B483B07B
:107B740000AF78607B68013318460C37BD465DF86A
:107B8400047B704780B483B000AF78607B681B7857
:107B94009B011BB203F4FE531AB27B685B789B080B
:107BA400DBB21BB213431BB29BB218460C37BD4663
:107BB4005DF8047B704780B483B000AF78600B46F7
:107BC4007B807B681B7823F07F03DAB27B681A70B2
:107BD4007B681B785AB27B889B099BB25BB203F02B
:107BE4007F035BB213435BB2DAB27B681A707B68C3
:107BF4005B7803F00303DAB27B685A707B685B78C6
:107C04005AB27B889B005BB213435BB2DAB27B68E7
:107C14005A7000BF0C37BD465DF8047B704780B4D2
:107C240083B000AF78607B689B781A067B68DB784A
:107C34001B041A437B681B791B0213437A6852792D
:107C4400134318460C37BD465DF8047B704780B477
:107C540083B000AF786039603B681B0EDAB27B6892
:107C64009A703B681B0CDAB27B68DA703B681B0ABB
:107C7400DAB27B681A713B68DAB27B685A7100BF6A
:107C84000C37BD465DF8047B704780B483B000AF09
:107C940078607B681B7803F04003002BCCBF012382
:107CA4000023DBB218460C37BD465DF8047B7047F1
:107CB40080B483B000AF78600B46FB707B681B78A0
:107CC40023F04003DAB27B681A707B681B785AB2DF
:107CD400FB789B015BB203F040035BB213435BB2DE
:107CE400DAB27B681A7000BF0C37BD465DF8047BBE
:107CF400704780B483B000AF78607B681B7803F072
:107D04003F03DBB218460C37BD465DF8047B704771
:107D140080B483B000AF78600B46FB707B681B783F
:107D240023F03F03DAB27B681A707B681B785AB27F
:107D340097F9033003F03F035BB213435BB2DAB24B
:107D44007B681A7000BF0C37BD465DF8047B704732
:107D540080B483B000AF78607B681B7803F0800345
:107D6400002BCCBF01230023DBB218460C37BD46E1
:107D74005DF8047B704780B483B000AF78600B4635
:107D8400FB707B681B7803F07F03DAB27B681A70A0
:107D94007B681B785AB2FB78DB015BB213435BB29E
:107DA400DAB27B681A7000BF0C37BD465DF8047BFD
:107DB400704780B483B000AF78607B681B7803F0B1
:107DC4007F03DBB218460C37BD465DF8047B704771
:107DD40080B483B000AF78600B46FB707B681B787F
:107DE40023F07F03DAB27B681A707B681B785AB27F
:107DF40097F9033003F07F035BB213435BB2DAB24B
:107E04007B681A7000BF0C37BD465DF8047B704771
:107E140080B483B000AF78607B685B7803F0800344
:107E2400002BCCBF01230023DBB218460C37BD4620
:107E34005DF8047B704780B483B000AF78600B4674
:107E4400FB707B685B7803F07F03DAB27B685A705F
:107E54007B685B785AB2FB78DB015BB213435BB29D
:107E6400DAB27B685A7000BF0C37BD465DF8047BFC
:107E7400704780B483B000AF78607B685B789B0107
:107E84001BB203F4FE531AB27B689B789B08DBB2E7
:107E94001BB213431BB29BB218460C37BD465DF8A8
:107EA400047B704780B483B000AF78600B467B805E
:107EB4007B685B7823F07F03DAB27B685A707B6857
:107EC4005B785AB27B889B099BB25BB203F07F0359
:107ED4005BB213435BB2DAB27B685A707B689B78FF
:107EE40003F00303DAB27B689A707B689B785AB21A
:107EF4007B889B005BB213435BB2DAB27B689A70F7
:107F040000BF0C37BD465DF8047B704780B483B076
:107F140000AF78607B689B78DB005BB203F01803EA
:107F24005AB27B68DB785B09DBB25BB213435BB2AA
:107F3400DBB218460C37BD465DF8047B704780B44D
:107F440083B000AF78600B46FB707B689B7823F0AE
:107F54000303DAB27B689A707B689B785AB2FB7829
:107F6400DB08DBB25BB203F003035BB213435BB227
:107F7400DAB27B689A707B68DB7803F01F03DAB2AD
:107F84007B68DA707B68DB785AB2FB785B015BB2A2
:107F940013435BB2DAB27B68DA7000BF0C37BD46BC
:107FA4005DF8047B704780B483B000AF78607B6871
:107FB400DB7803F01F03DBB218460C37BD465DF8CF
:107FC400047B704780B483B000AF78600B46FB70CD
:107FD4007B68DB7823F01F03DAB27B68DA707B6896
:107FE400DB785AB297F9033003F01F035BB21343F3
:107FF4005BB2DAB27B68DA7000BF0C37BD465DF85D
:10800400047B704780B584B000AF78607B681B78D0
:1080140083F00103DBB2002B04D07B46FB60F868DD
:10802400FFF700FA7B68DB790133012202FA03F3DC
:10803400013B18461037BD4680BD80B483B000AF05
:1080440078600B467B807B68C3F30C027B889A4282
:1080540009D27A887B68C3F30C03D21A7B68134471
:10806400A3F5005306E07A887B68C3F30C03D21AA5
:108074007B68134418460C37BD465DF8047B704793
:1080840080B58EB000AF0346FB800B467B71134670
:108094003B7107F10C032C220021184627F018F835
:1080A4000E233B73FB883B827B7903F00103DAB236
:1080B400BB7C62F30003BB743B79FB7407F10C03D4
:1080C400184601F057FF00BF3837BD4680BD80B564
:1080D4008EB000AF78600B46FB7007F10C032C22C6
:1080E4000021184626F0F4FF0F233B737B683B61A5
:1080F400FB783B7507F10C03184601F03BFF00BF0A
:108104003837BD4680BD000080B483B000AF03465D
:10811400FB71074B5A68064B9B68F97901FB03F323
:10812400134418460C37BD465DF8047B704700BF06
:10813400083A002080B483B000AF0346FB71074BBC
:10814400DA68064B1B69F97901FB03F313441846FB
:108154000C37BD465DF8047B704700BF083A002029
:1081640080B586B000AF78607B681B7883F001032C
:10817400DBB2002B04D07B463B613869FFF752F930
:108184007B689B8AFB817B68DB69DBB203F00103BC
:108194007B737B689A697B689B8819461046FFF756
:1081A4004CFFB86000237B611FE0144A7B69DB004D
:1081B40013445A68BB689A4214D1104A7B69DB00A5
:1081C40013445B88FA899A420CD10C4A7B69DB0020
:1081D40013445B787A7B9A4204D17B69DB00074ABB
:1081E400134406E07B6901337B617B69072BDCD98F
:1081F400002318461837BD4680BD00BFDC3B002075
:1082040080B584B000AF78600B46FB707B681B7848
:1082140083F00103DBB2002B04D07B46FB60F868DB
:10822400FFF700F9144B1B685A1C13490A6003F04A
:108234000703DB00114A1344BB607B689A8ABB685E
:108244005A807B689A697B689B8819461046FFF7B9
:10825400F4FE0246BB685A607B68DB69DBB203F05C
:108264000103DAB2BB685A70BB68FA781A7000BFAF
:108274001037BD4680BD00BFD83B0020DC3B00204A
:1082840080B586B000AFF860B9603B601346FB71FF
:10829400FB79022B07D0FB79012B04D07B467B6151
:1082A4007869FFF7BFF8FB689B6E002B04D07B4610
:1082B4003B613869FFF7B6F8344B1B683868984758
:1082C4000246FB689A66FB689B6E002B01D1002373
:1082D40057E0FB682C22B968184626F0CFFEFB68ED
:1082E40000229A643B689AB2FB68A3F84620BB68F4
:1082F4009A69BB689B8819461046FFF79EFE0246A2
:10830400FB689A61FB79012B1FD1214B1A7DFB6815
:1083140083F84D20FB68002283F84E20FB6800227E
:1083240083F84F20FB68002283F84C20BB689A6ACC
:10833400FB681A65FB686FF001029A62FB68154AD4
:108344005A63FB68FA68DA6313E0FB686FF00102B2
:108354009A62FB68002283F86420FB680E4A5A651F
:10836400FB68FA68DA65FB680C4A5A63FB68FA68CA
:10837400DA63012003F09AFCFB68FA7983F844205D
:10838400012318461837BD4680BD00BFD03B0020EE
:10839400083A00200B9A0200BD990200779A020065
:1083A40080B582B000AF7860124B1B687A68926E19
:1083B400104698477B682C33184605F075F87B689F
:1083C40093F84430022B04D17B684C33184605F0F3
:1083D4006BF86C220021786826F07AFE7B68002214
:1083E40083F84420002003F061FC00BF0837BD4639
:1083F40080BD00BFD43B002090B589B004AF786045
:108404000B46FB707B68002B04D17B46FB60F8684D
:10841400FFF708F87B6800211846FFF7F1FE7B6838
:108424001B6DFA7811461846FFF751FE7868FFF77E
:10843400B7FF134B1B6803F00403002B1CD0114B34
:108444001B68032B18DD104B002B01D00F4C00E0F0
:108454000F4CFFF773FB01467B6893F844301A46D0
:10846400FB78029301920B4B00930B464FF4D672A8
:108474002146042007F026FF00BF1437BD4690BDF7
:10848400383300203C33002006F6040007F60400CD
:108494009CF5040014F6040080B582B000AF786047
:1084A4007B6801211846FFF7ABFE7868FFF778FF79
:1084B40000BF0837BD4680BD80B58EB000AF786080
:1084C4007B6893F84430012B04D07B467B63786B44
:1084D400FEF7A8FF01233B727B681B6DFB6007F16D
:1084E4000803184601F046FD7868FFF759FF00BFFE
:1084F4003837BD4680BD000090B585B000AF7860C8
:108504007B6893F84430022B04D07B46FB60F86808
:10851400FEF788FF0C4B5B7D1846FFF7F5FDB8604E
:108524007B6803F14C0405F057F90246BB68134419
:108534001946204604F0E1FF7B68012283F8642099
:1085440000BF1437BD4690BD083A002090B585B0F1
:1085540000AF78607B6893F84430022B04D07B46EC
:10856400FB60F868FEF75EFF094B1B68BB607B6825
:1085740003F12C0405F030F90246BB681344194694
:10858400204604F0BAFF00BF1437BD4690BD00BFBB
:10859400083A002090B585B000AF78607B6893F806
:1085A4004430012B04D07B46FB60F868FEF73AFFA9
:1085B4007B681B7B012B08D17B689B7D1846FFF7EA
:1085C400B9FD02467B689A6305E00020FFF7B2FD1F
:1085D40002467B689A637B6803F12C0405F0FCF87F
:1085E40002467B689B6B13441946204604F085FFC2
:1085F40000BF1437BD4690BD80B582B000AF78602F
:1086040039607B68DB7D002B06D07B689B7819463C
:108614003868FFF7DDFB0BE07B689B781946386808
:10862400FFF746FB7B68DB7819463868FFF770FB79
:108634007B681B7819463868FFF79DFB7B681B78BD
:10864400002B1CD07B685B78082B0CBF0123002314
:10865400DBB219463868FFF7EEFB7B689B88194646
:108664003868FFF71FFC7B689B7919463868FFF769
:1086740066FC7B68DB7919463868FFF7A3FC00BF0A
:108684000837BD4680BD80B586B000AFF860B960DC
:108694007A603B60FB681B78002B01D0042300E068
:1086A40001237B617A697B681A44BB689A60FB6822
:1086B40003F10C02BB681A60FB689A6ABB685A60D3
:1086C400B8680BF0F9FD38613B69002B05D1BB6834
:1086D4001A697B691A443B681A603B691846183763
:1086E400BD4680BD80B58EB000AF78603960002390
:1086F4007B637B681B7B012B3ED107F12C03062295
:108704000021184626F0E4FC7B689A8807F12C03C4
:1087140011461846FFF74FFA07F12C03396818463B
:10872400FFF795FA06237B6101233B777B689B8ADD
:10873400FB8300233B6200233B7307F12C033B6163
:108744007B681B6A7B6200233B767B68DB897B83C7
:108754007B689B7D002B03D1002387F8283003E03E
:10876400084B5B7D87F8283007F10C036FF001019B
:10877400184601F049FB78637B6B18463837BD46D1
:1087840080BD00BF083A002080B485B000AF786097
:108794000B467B800023FB602AE01A4AFB686C21AD
:1087A40001FB03F3134444331B78012B1DD1154AF9
:1087B400FB686C2101FB03F3134414331A887B68B0
:1087C400DB899A4211D10F4AFB686C2101FB03F348
:1087D400134404331B887A889A4206D1FB686C22BE
:1087E40002FB03F3074A134406E0FB680133FB6012
:1087F400FB68032BD1DD002318461437BD465DF812
:10880400047B7047203A002080B485B000AF7860C4
:108814000023FB601FE0154AFB686C2101FB03F396
:10882400134444331B78022B12D1104AFB686C2189
:1088340001FB03F3134414331A887B689B8A9A421E
:1088440006D1FB686C2202FB03F3084A134406E0DA
:10885400FB680133FB60FB68032BDCDD0023184657
:108864001437BD465DF8047B704700BF203A0020F2
:1088740090B587B002AF78607B68DB7901337A68A2
:10888400D27D002A01D0082200E00C2202FB03F36F
:10889400BB607B68DB7D002B02D04FF4807201E06B
:1088A4004FF4C072BB689A421FD2294B1B6803F075
:1088B4000403002B17D0274B1B68002B13DD264B1A
:1088C400002B01D0254C00E0254CFFF737F9024678
:1088D400BB680193234B0093134640F26322214665
:1088E400012007F0EFFC00232DE00023FB6024E0CF
:1088F4001D4AFB686C2101FB03F3134444331B78CA
:10890400002B17D1FB686C2202FB03F3164A98185C
:10891400BB6802227968FFF7B3FC034683F00103C6
:10892400DBB2002B0DD1FB686C2202FB03F30E4A71
:10893400134408E0FB680133FB60FB68032BD7DDBD
:1089440000E000BF002318461437BD4690BD00BFA9
:10895400383300203C33002006F6040007F60400F8
:108964009CF5040038F60400203A002090B58BB042
:1089740002AFF860B9607A603B607868FFF744FF43
:10898400F861FB69002B12D07B689A88FB699B888D
:108994009A42C0F0DE807B689A88FB699B889A4281
:1089A40005D90521F869FFF727FD0023FB617868E5
:1089B400FFF7D6FBB861BB69002B0DD0BB691B78F0
:1089C400002B00F0C8807868FFF71CFB03461946AB
:1089D4007868FFF787FEBEE0FB69002B0FD178684B
:1089E400FFF746FFF861FB69002B08D10021786886
:1089F400FFF778FE02210020FFF769FBAEE0594B38
:108A04001B6803F00403002B18D0574B1B68032B7F
:108A140014DD564B002B01D0554C00E0554CFFF7AC
:108A24008DF802467B689B790193534B0093134660
:108A340040F2A7222146042007F044FCF869FFF71E
:108A440085FDFB691B7B012B07D1FB6993F864301F
:108A5400002B02D1F869FFF74FFDFB699A6C7B6824
:108A64009B79194601238B401340002B75D1FB6978
:108A74009A6C7B689B79194601238B401A43FB69E6
:108A84009A647B689A79FB69DB799A4214D1FB6911
:108A9400DB799AB27B68DB7D002B01D0082300E0F0
:108AA4000C2312FB03F39AB2BB689BB213449AB231
:108AB400FB69A3F846200EE07B68DB7D002B01D028
:108AC400082200E00C22BB689A4204D00421F86911
:108AD400FFF792FC42E0FB699B6E7A68927911463B
:108AE4007A68D27D002A01D0082200E00C2202FB21
:108AF40001F21344BA68F968184626F0BFFAFB6914
:108B04009C6CFB691846FFF77DFA03469C4225D10D
:108B1400FB69022283F86420FA69FB699B6C19469D
:108B24001046FFF7DFFD7861FB69986EFB69B3F8C7
:108B340046301946FA693B6800F022FF7B69002B36
:108B44000CD1FB69002283F86420F869FFF7A4FCC8
:108B540004E000BF02E000BF00E000BF2437BD46D0
:108B640090BD00BF383300203C33002006F60400DB
:108B740007F604009CF504004CF6040090B587B099
:108B840002AF786039600023FB737B68002B28D028
:108B94007B689A1C3B681A6007F10F031946386812
:108BA40005F0EFFFFB7B002B1BD0104B1B6803F081
:108BB4000403002B15D00E4B1B68032B11DD0D4B4A
:108BC400002B01D00C4C00E00C4CFEF7B7FF024622
:108BD4000B4B0093134640F2EB222146042007F08E
:108BE40071FBFB7B18461437BD4690BD383300201B
:108BF4003C33002006F6040007F604009CF504004C
:108C04005CF6040080B596B000AFF860B9607A6095
:108C14003B60FB68002B04D17B467B65786DFEF7D7
:108C240001FCBB68002B04D17B463B65386DFEF725
:108C3400F9FB3B68002B04D17B46FB64F86CFEF720
:108C4400F1FB3B685B6A02337B623B6803F10C0017
:108C54003B689B78002B01D0012100E002213B6896
:108C64005B78082B0CBF01230023DBB21A4607F103
:108C7400140305F093FF07F11403BB62FB68FB6266
:108C84007B689BB23B86BB68FB63FB6B3A8E1344E9
:108C94003B643B685B7887F844303B681B7B022B62
:108CA4000ED13B681B69002B04D17B46BB64B86CB6
:108CB400FEF7B8FB3B681B697B6310233B8701E02D
:108CC40000233B8707F12403184605F04FFF00BF3C
:108CD4005837BD4680BD80B483B000AF0346FB71F6
:108CE400FB79002B01D1042300E0082318460C373C
:108CF400BD465DF8047B704780B584B000AF7860F2
:108D040039603B68DB695A787B68DA703B68DB69F9
:108D14001B78002B14BF01230023DBB283F0010373
:108D2400DBB203F00103DAB27B689A703B68DA695C
:108D34007B685A623B681B7B022B07D13A4B9B7DB5
:108D44001846FFF7C8FF03461A4606E03B681B7B3C
:108D54001846FFF7C0FF03461A467B685A703B6803
:108D6400DB7A83F00103DBB2002B0ED03B689B8AD5
:108D74001A467B685B78C3F10F039A4205DC7B6873
:108D84005B78082B01D107234AE03B689B8A1A468B
:108D94007B685B78C3F10F039A4203DC3B68DB7AA0
:108DA400002B01D0012300E0002303F00103DAB219
:108DB4007B681A707B681B78002B16D03B689B8AF3
:108DC4001A467B685B7813440B33184A82FB031200
:108DD4005210DB17D31AFB60FB68DBB2013BDAB23B
:108DE4007B68DA717B6800229A717B680022DA75ED
:108DF4007B683A680C3392E8030083E803003B681D
:108E04009A697B681A623B681A897B689A823B6814
:108E14009A7A7B689A753B681A6A7B689A6200231F
:108E240018461037BD4680BD083A0020ABAAAA2ACE
:108E340080B487B000AFF860B9607A60BB681A7814
:108E4400FB689A70FB6800225A62BB689B680B2B14
:108E540003D8BB681B7B002B01D0012300E0002357
:108E640003F00103DAB2FB681A70FB6800225A703F
:108E7400FB681B78002B0DD0BB689B680733DB08AD
:108E84007B617B69DBB2013BDAB2FB68DA71FB68B8
:108E940000229A71FB680122DA75FB68BA680C3308
:108EA400103292E8030083E80300BB68DA89FB68A8
:108EB4009A82BB689A69FB681A62BB681A7FFB686E
:108EC4009A75FB687A689A6200BF1C37BD465DF8E4
:108ED400047B704780B58CB000AFF860B9607A60ED
:108EE400FB685B781A467B681A44FB68DB7D002BC1
:108EF40001D00B2300E00F239A4201D909232BE070
:108F0400FB685B781A467B681A4407F1140307F17F
:108F14001801F868FFF7B7FBF862FB6A002B1AD157
:108F2400BB6A1946F868FFF767FBFB68DB7D002B1B
:108F340006D07B697A68B968184626F09FF805E080
:108F44007969FB687A68B868FFF75CFE07F1180373
:108F540018460BF0DBF9FB6A18463037BD4680BD76
:108F640080B58CB000AF786039607B68DB7D002B06
:108F740001D0082300E00C23FB62FB6A3A6802FB81
:108F840003F3BB627B68DB791A463B689A4206D1DD
:108F94007B68B3F846301A46BB6AD31AFB623B6857
:108FA400DAB27B689A71786807F1080307F10C015B
:108FB400FA6AFFF768FB78627B6A002B54D13B683E
:108FC400002B13D17B6893F84F3083F00103DBB29D
:108FD400002B0BD07B689B699BB2C3F30C039AB242
:108FE4007B689A807B68012283F84F207B68DB7D55
:108FF40083F00103DBB2002B22D07B6893F84E3060
:1090040083F00103DBB2002B1AD03B68002B04D0A1
:109014007B463B62386AFEF705FA7B68986E7B688C
:10902400996E7B68B3F846301A467B685B78D31A2E
:109034001A467B68FFF7E6FD7B68012283F84E2021
:109044007B68FA6911461846FFF7D6FAB8687B6858
:109054009A6EBB6A1344FA6A194626F00FF807F1B0
:109064000C0318460BF052F97B6A002B0CBF01234A
:109074000023DBB218463037BD4680BD80B584B0CE
:1090840000AF78600023FB607B6893F84C30FB7280
:109094001CE07B689A6CFB7A012101FA03F313400C
:1090A400002B10D1FB7A19467868FFF759FF034665
:1090B400002B11D0FB680133FB60FB7A0133DAB279
:1090C4007B6883F84C20FB7A0133FB727B68DB7985
:1090D400FA7A9A42DDD900E000BFFB6818461037DF
:1090E400BD4680BD2DE9F04393B004AFF860B9608C
:1090F4007A60FB685B781A467B681344BB62FB6842
:10910400DB7D002B02D04FF4807201E04FF4C0727B
:10911400BB6A9A4201D20923B6E000237B63EFF3D2
:1091240010837B6272B600233B6314E0594A3B6BA5
:109134006C2101FB03F3134444331B78002B07D148
:109144003B6B6C2202FB03F3524A13447B6305E03E
:109154003B6B01333B633B6B032BE7DD7B6A002BEB
:1091640000D162B67B6B002B01D104238CE0BB6A77
:109174000122F968786BFFF783F80346002B00F0AF
:1091840082807B6B9B6E7A68B968184625F076FFFF
:10919400414B1B6803F00403002B6CD03F4B1B684E
:1091A400032B68DD6B461E467B6BB3F846303B628F
:1091B4003B6A5B00591C0B46013BFB610A464FF0BE
:1091C40000034FEAC30949EA52794FEAC2080A4642
:1091D4004FF00003DD0045EA5275D400CB1DDB08D7
:1091E400DB00ADEB030D04AB0033BB610023FB627A
:1091F40021E07B6B9A6EFB6A13441B78FB75FB6A58
:109204005B00274A1168FA7D1209D2B202F00F02FC
:109214000A441178BA69D154FB6A5B000133204ACD
:109224001168FA7D02F00F020A441178BA69D15428
:10923400FB6A0133FB62FA6A3B6A9A42D9D33B6AFE
:109244005B00BA690021D154164B002B01D0164C97
:1092540000E0164CFEF772FC0246BB690293144B05
:109264000193144B0093134640F2F7322146042035
:1092740007F028F8B546786BFFF700FF786BFFF727
:1092840089F9002300E0042318463C37BD46BDE8B5
:10929400F08300BF203A0020383300203C33002004
:1092A4003433002006F6040007F604009CF504009D
:1092B40070F6040080F6040080B582B000AF00238D
:1092C4007B6021E0144A7B686C2101FB03F31344A7
:1092D40044331B78012B14D17B686C2202FB03F30B
:1092E4000D4A13441846FFF7C9FE0346002B08D065
:1092F4007B686C2202FB03F3074A13441846FFF70A
:1093040049F97B6801337B607B68032BDAD900BFA2
:109314000837BD4680BD00BF203A002090B583B019
:1093240000AF00237B6050E02B4A7B686C2101FB7B
:1093340003F3134444331B78022B43D1264A7B683E
:109344006C2101FB03F3134464331B78022B39D1E2
:109354007B686C2202FB03F31F4A98181E4A7B6841
:109364006C2101FB03F3134448331B681946FFF7D0
:10937400B9F90346002B25D1174A7B686C2101FB00
:1093840003F31344643300221A70134A7B686C217C
:1093940001FB03F3134448331C687B686C2202FB13
:1093A40003F30D4A13441846FEF72CFE03469C4271
:1093B40008D17B686C2202FB03F3074A1344184666
:1093C400FFF76AF87B6801337B607B68032BABD9BA
:1093D40000BF0C37BD4690BD203A002080B500AFD9
:1093E400FFF76AFFFFF79AFF0123184680BD80B597
:1093F40092B000AFF860B9607A603B60FB689B692B
:109404007B64FB681B78002B0AD0FB689A69FB68B5
:109414009B8819461046FEF710FE0246FB689A61C7
:10942400FB6803F10C00FB689B78002B01D0012141
:1094340000E00221FB685B78082B0CBF01230023AA
:10944400DBB21A4607F1340305F0A8FBFB687A6C1B
:109454009A6107F134037B61BB68BB617B689AB294
:10946400FB685B789BB2D31A9BB2BB83BB69BA8B94
:109474001344FB623B68BB62FB685B7887F830305F
:109484000023BB84FB681B7B022B01D11023BB840C
:10949400FB689B78002B3DD0FB681B7B022B02D121
:1094A400FB681B693B62FB6800225A62FB68186A0E
:1094B400FB68D978FB6824331A4615F0E9F915E0FE
:1094C400FB685B6A07F1100211461846FFF756FB6A
:1094D4000346002B01D0002351E0FB68186AFB68A7
:1094E400D978FB6824331A4615F0D2F9FB685B6A15
:1094F400002BE5D1FB681B7B022B3FD1FB68DA898B
:10950400FB680C331946104615F0D2FA0346002BBB
:10951400C2D133E0FB6800225A62FB681B7B012B3B
:1095240014D1FB68DA89FB6824331946104615F018
:10953400DEF9FB685B6A07F1100211461846FFF773
:109544001DFB0346002B01D0002318E0FB6800221A
:109554005A62FB689A8AFB6824331946104615F050
:10956400C6F9FB685B6A07F1100211461846FFF75B
:1095740005FB0346002B01D0002300E00523184619
:109584004837BD4680BD80B584B000AFF860B9608F
:109594007A607B680C331822B968184625F06EFD92
:1095A400F868FEF7D5FB0346002B14BF0123002304
:1095B400DAB27B681A707B68DB7D002B0AD0F8680E
:1095C400FEF7F7FB03461A467B689A707B68002215
:1095D4005A7024E0F868FEF758FB0346002B14BFCA
:1095E40001230023DAB27B689A70F868FEF781FBE6
:1095F40003461A467B68DA707B681B78002B0BD015
:10960400F868FEF705FC0346002B01D0082200E0B1
:1096140004227B685A7002E07B6804225A707B68DB
:109624001B78002B14D0F868FEF723FC03461A4677
:109634007B689A80F868FEF769FC03461A467B68E3
:109644009A71F868FEF7AFFC03461A467B68DA7134
:109654007B6800225A6200BF1037BD4680BD0000FF
:1096640090B58BB002AFF860B9607A603B60BB68BC
:10967400062B54D1F868FEF785FA0346FB83F86895
:10968400FEF7CDFAB861FB8B19467868FFF77CF8D2
:1096940078617B69002B1CD1234B1B6803F0040306
:1096A400002B3DD0214B1B68012B39DD204B002BB7
:1096B40001D0204C00E0204CFEF740FA02461F4B3C
:1096C4000093134640F2B9422146022006F0FAFD07
:1096D40026E07B699A6CBB691A437B699A64BB690F
:1096E400002B04D103217869FEF786FE18E07B691C
:1096F4009C6C7B691846FEF785FC03469C4203D1AB
:109704007869FEF7D9FE0BE07B69002283F84C20D0
:109714007869FFF7B3FC7869FEF73CFF00E000BF0F
:109724002437BD4690BD00BF383300203C330020B1
:1097340006F6040007F604009CF5040088F604000D
:1097440080B487B000AF0346FB7100237B6120E047
:109754007B69DB00154A1344FB6000233B6110E086
:10976400FB681A683B69DB001344BB60BB681B7869
:10977400FA799A4202D1BB685B6810E03B69013315
:109784003B61FB685A683B699A42E9D87B690133BB
:109794007B61074B1B687A699A42D9D30023184628
:1097A4001C37BD465DF8047B704700BF203C002099
:1097B400283C002080B58EB000AFF860B9607A60B4
:1097C4003B607B689B78002B06D13B687A68B9685C
:1097D400F868FFF745FF2CE07B689B781846FFF795
:1097E400AFFF78637B6B002B22D07B689B783B7543
:1097F4007B681B6AFB627B689B8A7B847A6807F1BF
:1098040024030C3292E8030083E803007B689B7D09
:1098140087F83030FB68BB61BB68FB617B681B78F1
:1098240087F8203007F114027B6B3968104698479B
:1098340000BF00BF3837BD4680BD000090B5F5B00D
:1098440002AF07F10C04206007F108000160391D24
:109854000A603A46136007F1440307F1080207F16E
:109864000C01381D126809680068FFF7C0FDC7F8CD
:10987400C401D7F8C431002B54D107F13C030122B1
:109884001A703B1D1B689A8A07F13C035A8007F142
:109894003C0300225A6007F1100300221A7007F1FA
:1098A400100307F144025A6007F108031B689AB2D7
:1098B4003B1D1B685B789BB2D31A9AB207F1100365
:1098C4001A8107F1100307F13C020C3392E80300FC
:1098D40083E8030007F110033A1D126814330C32B5
:1098E40092E8030083E803003B1D1B689A7D07F19F
:1098F400100383F824203B1D1B681A6A07F1100328
:10990400DA613B1D1B685A6A07F110031A6207F1FA
:1099140010033A4612689A6207F11003184600F0E1
:1099240029FB1BE0104B1B6803F00403002B15D02C
:109934000E4B1B68052B11DD0D4B002B01D00D4C7C
:1099440000E00D4CFEF7FAF802460C4B0093134668
:109954004FF4A5622146062006F0B4FC00BF07F5CB
:10996400E677BD4690BD00BF383300203C3300206D
:1099740006F6040007F604009CF50400B8F604009B
:1099840080B584B000AFF860B9607A603B607B68F2
:10999400DB7D002B06D03B687A68B968F868FFF76E
:1099A40009FF05E03B687A68B968F868FFF746FF85
:1099B40000BF1037BD4680BD80B584B000AF78606D
:1099C40039603B68FB60FB6893F84430022B04D099
:1099D4007B46BB60B868FDF725FDFB68022283F86F
:1099E4006420FA68FB689B6C19461046FEF77AFE01
:1099F4000346002B03D1FB68002283F8642000BFD8
:109A04001037BD4680BD80B584B000AF7860396042
:109A14003B68FB60FB6893F84430012B04D07B4621
:109A2400BB60B868FDF7FEFCFB6893F84D30002B73
:109A34000CD1FB681B7B012B04D10121F868FEF7D4
:109A4400DBFC12E0F868FEF737FD0EE0FB6893F8E4
:109A54004D30013BDAB2FB6883F84D20FB680022ED
:109A640083F84C20F868FFF709FB00BF1037BD46A8
:109A740080BD80B584B000AF786039603B68FB601E
:109A84000021F868FEF7B8FC00BF1037BD4680BD62
:109A940080B590B000AFB9607A603B600346FB7359
:109AA400FB7B002B0CD13B6813F1020F08D0012380
:109AB4003B753B68BB6107F11403184600F05AFA82
:109AC400044B1B68184604F0A3FE00BF4037BD4694
:109AD40080BD00BF1C3C002080B584B000AFF8609E
:109AE400B9607A60FB689B8A184602F06FFD0346F2
:109AF400012B0BD1FB681B7B002B07D0FB681B7B66
:109B0400022B05D1FB681B69002B01D1102317E040
:109B1400FB689B7D5BB2002B01DA072310E0FB6836
:109B24001B78002B06D07A68B968F868FFF7DAFA70
:109B3400034605E07A68B968F868FFF7CBF903468D
:109B440018461037BD4680BD80B582B000AF78603E
:109B540000F088F84FF4D87200211B4825F0B8FAB9
:109B640008F017F8194B00221A6040220021184807
:109B740025F0AEFA174B184A1A60164B174A5A606A
:109B8400144B4CF250329A60124B154ADA60114B66
:109B94004CF250321A610F4B04221A750D4B0022FD
:109BA4009A750C4B08225A750E4804F0FFFD0246C4
:109BB4000D4B1A600D4B00221A600D4808F06EFA26
:109BC40000BF0837BD4680BD203A0020D83B0020A6
:109BD400DC3B0020083A002080969800F0490200FF
:109BE40020A10700E19302001C3C0020283C002037
:109BF400959A020080B584B000AF786039607B68C4
:109C0400002B0CBF01230023DAB23B68002B0CBFEE
:109C140001230023DBB25340DBB2002B01D00E231F
:109C240018E07B68002B06D13B68002B03D100F0C1
:109C340019F800230EE0EFF31083FB6072B6074AB5
:109C44007B681360064A3B681360FB68002B00D1F5
:109C540062B6002318461037BD4680BDD03B0020B5
:109C6400D43B002080B582B000AF08490848FFF714
:109C7400C1FF0346002B04D07B467B607868FDF768
:109C8400D1FB00BF0837BD4680BD00BF8DEF040087
:109C9400F5EE040080B592B000AFF860B9607A6068
:109CA4003B6000237B64FB68002B02D07B68002BA5
:109CB40001D10E2373E007F13C030822002118466A
:109CC40025F006FA7B685B8807F13C0211461846CA
:109CD40014F0EEFE034683F00103DBB2002B01D047
:109CE4007B6C5CE07B6818897B68D9687B681B693E
:109CF400DBB203F00103DBB21A4607F0B9FF0346F7
:109D0400002B01D07B6C4AE07B6818897B68D9689A
:109D14007B681B69DBB203F00103DBB21A4607F070
:109D24003FFF78647B6C002B0DD07B6818897B68BF
:109D34001B69DBB203F00103DBB200221946FEF714
:109D44009FF97B6C2BE007F110031A467968F868D9
:109D5400FFF719FC07F11C0307F13C0292E803002A
:109D640083E8030004F0CCFC3B7C002B0AD0F868A9
:109D7400FDF7F0FEBB68191F07F110023B68FEF700
:109D8400F5FD09E0F868FDF7F1FEBB68591E07F11F
:109D940010023B68FFF7F4FD04F0DCFC00231846D6
:109DA4004837BD4680BD80B58EB000AF786039605D
:109DB4007B68002B0BD07B681B69002B07D07B686A
:109DC400DB69002B03D07B689B69002B01D10E2338
:109DD40016E007F1080379681846FEF78DFF7863EB
:109DE4007B6B002B01D07B6B0AE07B6819697B6875
:109DF4009B8A1A4607F108031846FFF76DFE0346CF
:109E040018463837BD4680BD80B58EB000AF786047
:109E140039607B68002B07D07B685B68002B03D01C
:109E24007B689B69002B01D10E2322E07B681B7C9D
:109E3400022B03D07B681B7C002B01D1102318E07C
:109E44007B681B785BB2002B01DA072311E007F172
:109E54000C033A6879681846FEF7EAFF7B685B688A
:109E640019467B689A6807F10C031846FFF734FE1D
:109E7400034618463837BD4680BD000080B584B01F
:109E840000AF786039607B68002B01D10E2349E074
:109E9400264B1B68002B01D0042343E00023FB6006
:109EA40029E0FB68DB007A6813445B68002B01D16E
:109EB4000E2337E0FB68DB007A6813441B785BB23F
:109EC400002B01DA0B232DE0FB68DB007A681344D6
:109ED4001B78002B0AD0FB68DB007A6813441B78DC
:109EE4001846FFF72DFC0346002B01D00F2319E081
:109EF400FB680133FB60FA683B689A42D1D30B4B91
:109F04001B680B497A6841F83320084B1B68084AE0
:109F1400DB0013443A685A60044B1B680133034A5C
:109F24001360002318461037BD4680BD283C00202E
:109F3400203C002080B584B000AF0D4B1B68FB6053
:109F44000FE0FB68043BBB60FB681B687B60BB687D
:109F54001B7A002B03D0F968054806F0D5F87B6816
:109F6400FB60FB68002BECD100BF1037BD4680BD01
:109F74002C3C002080B586B000AF78607B68002B55
:109F840004D17B463B613869FDF74CFA154B1B68DD
:109F9400002B23D0144B01221A70124B1B687B61D7
:109FA40010E07B69043BFB60FB681B7A83F00103D0
:109FB400DBB2002B03D0FB681B68786898477B6989
:109FC4001B687B617B69002BEBD1074B1B78022B51
:109FD40004D1FFF7AFFF044B00221A7000BF1837FB
:109FE400BD4680BD2C3C0020303C002080B584B0B0
:109FF40000AF78607B68002B04D17B46FB60F86877
:10A00400FDF710FA7B6800221A727B680433194644
:10A01400034806F037F800BF1037BD4680BD00BFC7
:10A024002C3C002080B584B000AF78607B68002BA6
:10A0340004D17B46FB60F868FDF7F4F90C4B1B7800
:10A04400012B03D00A4B1B78022B06D1084B0222AA
:10A054001A707B6801221A7205E07B680433194682
:10A06400044806F051F800BF1037BD4680BD00BF5C
:10A07400303C00202C3C002080B483B000AF7860DA
:10A0840039603B687A6892689B1A9BB218460C3711
:10A09400BD465DF8047B704780B483B000AF786040
:10A0A4000B467B807B689A687B88134418460C3780
:10A0B400BD465DF8047B704780B584B000AF78601E
:10A0C40039603B681B8819467868FFF7E5FF03464B
:10A0D4001B880433BB813B681A88BB8903339BB25A
:10A0E40023F003039BB21344FB81FA897B681B882A
:10A0F400043B9A4201D90023FB813B68FA891A8008
:10A1040000BF1037BD4680BD80B584B000AF786015
:10A11400396039687868FFF7AFFF0346FB8107F1C0
:10A124000E0319467868FFF7C7FFFB89194678685C
:10A13400FFF7B2FF034618461037BD4680BD80B511
:10A1440084B000AF786039607B689B687A689288D5
:10A154001A443B689A4204D07B46FB60F868FDF7DA
:10A1640061F93B6800229A707B6804331946786869
:10A17400FFF7A2FF7B689B8819467868FFF78CFF7E
:10A1840003469B78042B02D17B6800229A8000BF8F
:10A194001037BD4680BD80B584B000AF78603960AB
:10A1A4007B689B687A6852881A443B689A4204D058
:10A1B4007B46FB60F868FDF735F93B6800229A702E
:10A1C40000BF1037BD4680BD80B483B000AF786057
:10A1D4007B681B88043B9BB218460C37BD465DF870
:10A1E400047B704780B584B000AF78600B467B80F9
:10A1F4007B685B8819467868FFF74EFFF860FB6858
:10A204007A881A80FB6801229A70FB681846103716
:10A21400BD4680BD80B582B000AF7860002178680B
:10A22400FFF73AFF034600229A707B6800225A80A7
:10A234007B6800229A8000BF0837BD4680BD80B588
:10A2440086B000AF78600B467B807B8807339BB277
:10A2540023F003037B827B685A887B689B889A423D
:10A264000ED27A8A7B689B8819467B685B88CB1AF6
:10A274009A4202DC00237B6142E004237B613FE0DD
:10A284007B685A887B689B889A4227D97B681B889D
:10A294001A467B685B88D31AFB607A8AFB689A4209
:10A2A40002D800237B612BE07B689B887A8A9A42E0
:10A2B40011D8FB68032B08D97B685B88194678683A
:10A2C400FFF7EAFE034604229A707B6800225A8054
:10A2D40000237B6114E004237B6111E07B689B888D
:10A2E40019467868FFF7D8FE03469B78002B05D102
:10A2F4007868FFF78FFF00237B6101E004237B6113
:10A304007B6918461837BD4680BD80B58AB000AF5A
:10A31400F860B9601346FB80BB68002B04D17B4610
:10A324007B62786AFDF77EF8FB68002B04D17B46DC
:10A334003B62386AFDF776F8BB68B3F1005F09D970
:10A344004FF08053D3F80C3103F500239A02BB6815
:10A354009A4212D8BB68B3F5000F09D94FF0805365
:10A36400D3F80C3103F500539A02BB689A4204D81F
:10A374007B46FB61F869FDF755F8FB88013BBA6839
:10A384001344B3F1005F0DD9FB88013BBA68134451
:10A394001A464FF08053D3F80C3103F500239B0287
:10A3A4009A4219D3FB88013BBA681344B3F5000FF2
:10A3B4000DD9FB88013BBA6813441A464FF0805309
:10A3C400D3F80C3103F500539B029A4204D37B4625
:10A3D400BB61B869FDF726F8FB88042B04D87B46DB
:10A3E4007B617869FDF71EF8FB68FA881A80FB68C0
:10A3F40000225A80FB6800229A80FB68BA689A603F
:10A404000021F868FFF748FE3861FB681B88043BAD
:10A414009AB23B691A803B6900229A7000BF2837C0
:10A42400BD4680BD80B588B000AF78607B68002BE6
:10A4340004D17B46FB61F869FCF7F4FF7B685B8819
:10A4440019467868FFF728FE03469B78012B04D150
:10A454007B46BB61B869FCF7E5FF7B689B881946BE
:10A464007868FFF719FE7861EFF310833B6172B6E9
:10A474007B699B78032B0CBF01230023FB73FB7BBD
:10A48400002B10D079697868FFF73EFE786179690E
:10A494007868FFF7F1FD03461A467B685A807B69AA
:10A4A40000229A7002E07868FFF7B4FE3B69002B43
:10A4B40000D162B600BF2037BD4680BD80B588B0EC
:10A4C40000AFF860B9601346FB80FB68002B04D131
:10A4D4007B46BB61B869FCF7A5FFBB68002B04D1C0
:10A4E4007B467B617869FCF79DFFFB685B881946B6
:10A4F400F868FFF7D1FD03469B78012B04D17B4616
:10A504003B613869FCF78EFF0023FB61FB88002B5D
:10A5140007D0F868FFF758FE03461A46FB889342B3
:10A5240002D90923FB6110E0FB881946F868FFF79C
:10A5340086FEF861FB69002B07D1FB881946F86891
:10A54400FFF750FE0246BB681A60FB6918462037C5
:10A55400BD4680BD80B58AB000AFF860B9601346CF
:10A56400FB80FB68002B04D17B467B62786AFCF796
:10A5740059FFBB68002B04D17B463B62386AFCF769
:10A5840051FFBB689B78012B04D07B46FB61F869C3
:10A59400FCF748FFBB681B88FA889A4204D97B46BB
:10A5A400BB61B869FCF73EFFFB88002B04D17B46F6
:10A5B4007B617869FCF736FFBB68FA881A80BB6850
:10A5C40002229A70FB6802331946F868FFF774FD9B
:10A5D400FB685A88FB689B889A4209D0FB685B88B1
:10A5E4001946F868FFF758FD38613B6900229A70F4
:10A5F40000BF2837BD4680BD80B588B000AF786005
:10A6040039607B68002B04D17B467B617869FCF759
:10A6140009FF3B68002B04D17B463B613869FCF79A
:10A6240001FF0023FB617B689B8819467868FFF76C
:10A6340033FDB861BB699B78042B0CD17B68043370
:10A6440019467868FFF738FD7B689B881946786857
:10A65400FFF722FDB861BB699B78022B02D0032B64
:10A6640007D00CE0BB6903229A703B68BA691A6090
:10A6740008E07B46FB60F868FCF7D4FE02E00523A3
:10A68400FB6100BFFB6918462037BD4680BD80B51D
:10A6940084B000AF78607B68002B04D17B46BB603C
:10A6A400B868FCF7BFFE7B689B8819467868FFF79B
:10A6B400F3FCF860FB689B78042B04D1F968786894
:10A6C400FFF722FDF860FB689B78022B0CBF012387
:10A6D4000023DBB218461037BD4680BD80B584B078
:10A6E40000AF78607B68002B04D17B46BB60B86800
:10A6F400FCF798FE7B689B8819467868FFF7CCFCCA
:10A70400F86004E0F9687868FFF7FEFCF860FB681D
:10A714009B78032BF6D0FB689B78042BF2D0FB6864
:10A724009B78022B0CBF01230023DBB218461037A1
:10A73400BD4680BD80B586B000AF786039607B6867
:10A74400002B04D17B467B617869FCF76BFE3B6888
:10A75400002B04D17B463B613869FCF763FE3B6800
:10A764009B78012B06D0032B09D139687868FFF751
:10A77400E6FC09E039687868FFF70DFD04E07B46E4
:10A78400FB60F868FCF74EFE00BF1837BD4680BD7D
:10A7940080B588B000AFF860B9607A603B6001238F
:10A7A4003B74FB687B61BB68FB617B68BB6107F141
:10A7B40010033A681946012001F026FE03461846A4
:10A7C4002037BD4680BD80B588B000AFF860B96061
:10A7D4007A6002233B74FB687B61BB68BB6107F151
:10A7E40010037A681946012001F00EFE034618464C
:10A7F4002037BD4680BD80B483B000AF78607B68ED
:10A804001B791A467B685B79D31A03F57F2303F619
:10A81400FF731B037A68134418460C37BD465DF872
:10A82400047B704780B582B000AF78607868FFF72A
:10A83400E2FF034603F5805318460837BD4680BD42
:10A8440080B483B000AF0346FB80FB88002B05D0A7
:10A85400FB88B3F5FE4F01D2012300E0002303F08F
:10A864000103DBB218460C37BD465DF8047B704724
:10A8740080B483B000AF78607B681B781A467B682D
:10A88400134418460C37BD465DF8047B704780B509
:10A8940084B000AF78607B681B88002B04D17B46B2
:10A8A400FB60F868FCF7BEFD7B681B889B007A6838
:10A8B4001A447B681B889B0079680B4423F47F63EC
:10A8C40023F00F039A4204D07B685B88B3F5FE4FF4
:10A8D4000BD17B6823F47F6323F00F0303F58053CC
:10A8E4001846FFF7C5FF034604E07B681B889B00FE
:10A8F4007A68134418461037BD4680BD80B584B0CD
:10A9040000AF786039607B68FB607868FFF7BFFF51
:10A9140078607A683B689A4203D27A68FB689A4204
:10A9240001D800230BE07B685B881846FFF788FF9B
:10A93400034683F00103DBB2002BE6D17B681846A3
:10A944001037BD4680BD80B584B000AFF860B960F3
:10A954007A603B60FB6800225A60BB685B881846DB
:10A96400FFF76EFF034683F00103DBB2002B0CD02C
:10A974007968B868FFF7C2FFB860BB68002B04D1E0
:10A98400FB6800221A60002330E0FB68BA681A6092
:10A994000BE0FB685A68BB681B889B001A44FB6881
:10A9A4005A60B868FFF773FFB860BA687B689A4268
:10A9B4001BD2FB685A68BB681B889B001A443B681F
:10A9C4009A4212D2FB681B681A46BB68534023F4B0
:10A9D4007F6323F00F03002B07D1BB685B88184605
:10A9E400FFF72EFF0346002BD3D1BB681846103760
:10A9F400BD4680BD98B500AF134BDB681846FFF722
:10AA040037FF114BDB6803F580530022194607F02A
:10AA1400F3FA0346002B13D10B4BDC680A4BDB68BB
:10AA24001846FFF7E8FE03469C4201D1022308E0E2
:10AA3400054BDB6803F58053034AD360032300E02E
:10AA44000123184698BD00BF383C002080B500AFF4
:10AA5400074B1B68074A4FF480511846FFF7B3FEB3
:10AA64000346002B01D1012300E00023184680BDDA
:10AA7400343C0020543C002080B582B000AF154B1C
:10AA8400DB681B787B60144B1B68181D114BD9685D
:10AA9400124B7A68FFF77CFE0346002B15D10E4B50
:10AAA4001A687B689B089B0013440433094A53616A
:10AAB400084BDB681846FFF7DBFE0246054B1A61BC
:10AAC400044B00225A76012300E00023184608377D
:10AAD400BD4680BD383C0020343C0020543C00205E
:10AAE40090B589B000AF394B1B69002B04D17B466C
:10AAF400BB61B869FCF796FC344B5B69002B04D14D
:10AB04007B467B617869FCF78DFC0023FB774AE088
:10AB14002E4B5B6923F47F6323F00F032B4A5269A6
:10AB24009B1A03F580533B61284B1C69274BDB6858
:10AB34001846FFF777FE024638463B692146FFF781
:10AB440002FFF8607B68002B1FD0204B58693968DE
:10AB54007A681F4BFFF71CFE0346002B13D11B4BD7
:10AB64005A697B6823F003031344184A5361FB6852
:10AB7400002B04D17B46BB60B868FCF753FC134A36
:10AB8400FB68136103E000231BE00123FB77FB68F0
:10AB9400002B05D0FB685B8847F6FF72934202D115
:10ABA4000A4B01225A76094B5B7E83F00103DBB228
:10ABB400002B05D0FB7F83F00103DBB2002BA7D170
:10ABC400012318462437BD4690BD00BF383C002001
:10ABD400543C002080B500AF074B1B681846074B58
:10ABE40004220749FFF7D4FD0346002B01D10123BA
:10ABF40000E00023184680BD343C0020543C002073
:10AC0400443C002080B500AF074BDB68074A4FF493
:10AC140080511846FFF7D7FD0346002B01D10123CD
:10AC240000E00023184680BD383C0020543C00203E
:10AC340080B500AF0A4BD8680A4B1B68191D0A4B34
:10AC440040F6FC72FFF7A4FD0346002B04D1044B2D
:10AC540001221A76012300E00023184680BD00BFBC
:10AC6400383C0020343C0020543C002080B582B0A5
:10AC740000AF1C4BDB681846FFF7FAFD194BDB6885
:10AC840003F580534FF6FF72194607F0B5F93860A3
:10AC94003B68002B08D0134BDB681846FFF7E8FD30
:10ACA40002463B689A4201D1012317E00D4B5B7EBB
:10ACB400002B02D00C4B7B6001E00C4B7B600C4BF7
:10ACC400042279683868FFF763FD0346002B04D13A
:10ACD400044B01221A76012300E0002318460837AA
:10ACE400BD4680BD383C002030F904002CF9040036
:10ACF400543C002080B584B000AF2E4BDB685B79F8
:10AD04001A462C4BDB681B79013B9A4201D1012383
:10AD14004CE0284BDB6803F580531846FFF7A8FD89
:10AD2400F860254B1B6804331846FFF7A1FDB86093
:10AD3400204BDB681846FFF775FD7860FB685B887D
:10AD44001846FFF77DFD034683F00103DBB2002BB9
:10AD540026D07968F868FFF7D1FDF86020E0164B3B
:10AD64001B6803F58051FB685B881A46B86807F0D6
:10AD740043F9B860BB68002B16D00E4B01221A763B
:10AD84000E4B04220E49F868FFF702FD0346002B20
:10AD940001D000230AE07968F868FFF7AFFDF86096
:10ADA400FB68002BDBD100E000BF012318461037FD
:10ADB400BD4680BD383C0020343C0020543C00207B
:10ADC40028F9040098B500AF124BDC68114BDB681E
:10ADD4001846FFF710FD03469C4211D10E4B1B6829
:10ADE40018460E4B04220E49FFF7D2FC0346002BF3
:10ADF40004D1084B01221A76022308E0002306E05E
:10AE0400044BDB6803F58053024AD36003231846DE
:10AE140098BD00BF383C0020343C0020543C002046
:10AE2400583C002080B582B000AF074B9B687B6024
:10AE34001C220021044824F04BF9786806F024FC15
:10AE440000BF0837BD4680BD383C002080B584B0C3
:10AE540000AF78600023FB600DE00C4AFB6852F8F9
:10AE640023207B689A4203D1094AFB6853600AE0B5
:10AE7400FB680133FB60FB68092BEED97B46BB60A2
:10AE8400B868FCF7CFFA1037BD4680BDE4F604007D
:10AE9400383C002080B586B000AF304BDB68002B17
:10AEA40004D17B467B617869FCF7BCFA2B4B1B7E93
:10AEB400002B04D07B463B613869FCF7B3FA274B7F
:10AEC4005B68092B04D97B46FB60F868FCF7AAFA97
:10AED400224B5B68224A52F8233098470346FB72A0
:10AEE400FB7A032B29D801A252F823F03FAF0200CA
:10AEF40001AF020027AF02001FAF0200174B5B68CF
:10AF04000133164A5360154B5B68092B14D97B46F1
:10AF14007B607868FCF786FA0EE0104B00225A60DA
:10AF24000BE00E4B1B7E002B03D00C4B02221A703D
:10AF340003E0FFF777FF00E000BFFB7A012B02D0AC
:10AF4400FB7A032B06D1054B1B7E83F00103DBB296
:10AF5400002BBDD100BF1837BD4680BD383C002052
:10AF6400E4F6040080B582B000AF03463960FB719B
:10AF74001346BB803B681B78032B02D10F4B002286
:10AF84001A760E4B1B78012B09D10C4B1B7E83F0D8
:10AF94000103DBB2002B0CD0FFF77CFF09E0074B69
:10AFA4001B78022B05D13B681B78032B01D1FFF7DB
:10AFB40039FF00BF0837BD4680BD00BF383C0020C4
:10AFC40080B500AF184B1B681B68002B28D0164BAC
:10AFD4001B681B68B3F1FF3F22D0134B1B681B682F
:10AFE400C3F30B03002B1BD10F4B1B681B680F4AC9
:10AFF400D3600E4B00221A760C4B00225A760B4B70
:10B0040001221A70094B00229A600948FFF71EFFBB
:10B014000849012001F0DAF9FFF73CFF012300E0C1
:10B024000023184680BD00BF343C0020383C00207B
:10B0340009AC020069AF020080B582B000AF4FF0E6
:10B0440010235B69B3F1FF3F0BD04FF010235B6912
:10B05400002B06D04FF010235B69A3F580537B606F
:10B0640008E04FF080535B694FF08052126902FB95
:10B0740003F37B607B68A3F58053044A1360FFF7F6
:10B084009FFF034618460837BD4680BD343C002068
:10B0940080B400AF054B1B78002B14BF01230023A1
:10B0A400DBB21846BD465DF8047B7047383C00208F
:10B0B40080B584B000AF7860174B1B78002B04D0A8
:10B0C4007B46FB60F868FCF7ADF97B681B78032BC3
:10B0D40004D07B46BB60B868FCF7A4F90E4A7B68D1
:10B0E40093607B68DB680C4AD3600B4B00225A6088
:10B0F400094B00221A76084B01221A70064B0022D3
:10B104005A760649012001F061F9FFF7C3FE00BF3A
:10B114001037BD4680BD00BF383C002069AF020037
:10B1240080B400AF034B1B681846BD465DF8047B32
:10B13400704700BF343C002080B586B000AF786013
:10B144007B68002B04D17B467B617869FCF76AF944
:10B154007B685B68002B07D07B681B68002B03D0DF
:10B164007B689B68002B04D17B463B613869FCF704
:10B1740059F97B689A687B689B68013B1340002BF4
:10B1840004D07B46FB60F868FCF74CF97B6800222E
:10B19400DA607B6800221A6100BF1837BD4680BDA3
:10B1A40080B584B000AF786039607B68002B02D032
:10B1B4003B68002B01D10E2337E07B689B68002B92
:10B1C40001D1092331E0EFF31083FB6072B67B6891
:10B1D4001A697B689B681A447B68DB689A4205D1CC
:10B1E400FB68002B00D162B604231EE07B681A685A
:10B1F4007B685B687968C868796889680139014047
:10B2040001FB03F31344BB607B685B681A4639682F
:10B21400B86823F033FF7B68DB685A1C7B68DA600C
:10B22400FB68002B00D162B6002318461037BD46D8
:10B2340080BD80B584B000AF786039607B68002B36
:10B2440001D10E2337E07B689B68002B01D10923D1
:10B2540031E0EFF31083FB6072B67B681A697B6898
:10B26400DB689A4205D1FB68002B00D162B6052346
:10B2740021E07B681A687B685B687968086979688B
:10B2840089680139014001FB03F31344BB603B6847
:10B29400002B06D07B685B681A46B968386823F0CF
:10B2A400EDFE7B681B695A1C7B681A61FB68002BE6
:10B2B40000D162B6002318461037BD4680BD000099
:10B2C40080B400AF00BF054BD3F80034002BFAD094
:10B2D40000BFBD465DF8047B704700BF00E001403D
:10B2E40080B584B000AF786039607B68C3F30B032A
:10B2F400002B01D010232AE03B68002B01D1092345
:10B3040025E03B6803F6FF731B0BBB60124B022264
:10B31400C3F80425FFF7D4FF0023FB600CE00E4ABA
:10B324007B68C2F80835FFF7CBFF7B6803F58053D1
:10B334007B60FB680133FB60FA68BB689A42EED31A
:10B34400054B0022C3F80425FFF7BAFF0023184673
:10B354001037BD4680BD00BF00E0014080B584B019
:10B3640000AFF860B9607A60FB6803F00303002B58
:10B3740004D1BB6803F00303002B01D0102330E099
:10B384007B68002B04D07B6803F00303002B01D0FF
:10B39400092326E07B689B087B60144B0122C3F8D9
:10B3A4000425FFF78DFF10E0BB681B68B3F1FF3F76
:10B3B40005D0BB681A68FB681A60FFF781FFFB6859
:10B3C4000433FB60BB680433BB607B685A1E7A603D
:10B3D400002BE9D1054B0022C3F80425FFF770FFC9
:10B3E400002318461037BD4680BD00BF00E0014071
:10B3F40080B483B000AF78607B681B8808337A68B8
:10B40400134418460C37BD465DF8047B704780B47E
:10B4140085B000AFF8600B467A607B81FB687A895F
:10B424001A80FB6800225A80FB687A685A6000BF61
:10B434001437BD465DF8047B7047000080B586B0C4
:10B4440000AF78604FF480537B611D4B1B684FF451
:10B4540080520021184623F03BFE194B1B68194A01
:10B464001360174B1B683B6111E0002228213869E7
:10B47400FFF7CDFF3869FFF7BBFF02463B695A600F
:10B484007B69303B7B613869FFF7B2FF38617B69C8
:10B49400502BEAD87B69083BFB60FB68002B04D186
:10B4A4007B46BB60B868FBF7BDFFFB689BB200221C
:10B4B40019463869FFF7ABFF00BF1837BD4680BD9A
:10B4C400E43200205C4C002080B500AF05E003F0BE
:10B4D4003DFA0346002B00D020BF06F0B7F8034620
:10B4E40083F00103DBB2002BF1D100BF80BD00006B
:10B4F40080B483B000AF78607B6841F2826293428B
:10B5040003D8084B1B78002B01D0012300E0002353
:10B5140003F00103DBB218460C37BD465DF8047B2B
:10B52400704700BF8C4C002080B590B000AFF8602D
:10B53400B9601346FB71BB683B62FB793B76FB68E1
:10B54400FB6102233B7507F114031846FEF712FD55
:10B5540000BF4037BD4680BD80B584B000AF03F066
:10B56400CFF82D4B5B7B002B10D02B4B9B7B83F0B8
:10B574000103DBB2002B09D0274B1B8A1846FFF7C7
:10B58400B7FF0346002B01D0012300E00023FB7327
:10B59400FB7B03F00103FB73FB7B002B34D01E4BBE
:10B5A40000225A731C4B1B7B002B02D0012B0BD0A7
:10B5B40023E000F03FFB0346002B24D07B46BB6016
:10B5C400B868FBF72FFF1EE0134B00221A60124BE2
:10B5D40000225A60104B00221A730F4B00221A8269
:10B5E4000D4B99680C4B1B7B1A460020FFF79CFF00
:10B5F40000F058F900F020F906E07B467B6078689B
:10B60400FBF710FF00E000BF03F0A4F8FB7B184633
:10B614001037BD4680BD00BF604C002080B584B0AB
:10B6240000AF786039600123FB73254B1B7B002B33
:10B6340002D0012B0DD022E0214B1B8A1846FFF7C4
:10B6440057FF0346002B20D0FFF786FF0023FB7330
:10B654001BE01B4B1B8A1846FFF74AFF0346002BCF
:10B6640015D0174B1B8A42F2B012934204D9144BE3
:10B6740001225A730023FB73FFF76EFF07E07B463A
:10B68400BB60B868FBF7CEFE02E000BF00E000BF7D
:10B69400FB7B002B05D00A4B1B8A01339AB2084B63
:10B6A4001A82074B5B8A002B05D0054B5B8A013B52
:10B6B4009AB2034B5A8200BF1037BD4680BD00BF0B
:10B6C400604C002080B584B000AFF860B9601146CA
:10B6D4001A460B46FB711346BB713B4B1B7B002B7D
:10B6E40057D1394B5B8A002B44D1FB7983F001039A
:10B6F400DBB2002B04D0344B9A68BB689A4208D35F
:10B70400FB79002B36D0304B9B685A1CBB689A429D
:10B7140030D22D4B9B6803F12A02BB689A424DD369
:10B72400294B9B7B83F00103DBB2002B46D0264AD6
:10B73400BB689360244B00221A60234B00225A609A
:10B74400214B00221A82204B42F606525A821E4B8B
:10B7540000225A731C4B00221A7300F0A3F800F065
:10B764006BF8194B9968184B1B7B1A46F868FFF75E
:10B77400DBFE23E0FB79002B21D0134B9B685A1C82
:10B78400BB689A421BD1104B01225A73FFF7E4FEA7
:10B7940015E00D4B1B7B012B11D1FB7983F00103C9
:10B7A400DBB2002B0BD0084B9A68BB689A4206D1D7
:10B7B400054B01225A73FFF7CFFE00E000BF00BF24
:10B7C4001037BD4680BD00BF604C002080B582B0FC
:10B7D40000AF78607B681B78042B15D17B685B68AD
:10B7E4001B78002B10D07B689B6803F110007B68EA
:10B7F40059697B681B7E012B0CBF01230023DAB23D
:10B804007B685B7EFFF75EFF00BF0837BD4680BDE7
:10B8140080B584B000AF78607B68002B04D17B4690
:10B82400FB60F868FBF7FEFD7B68BB60BB6898476C
:10B8340000BF1037BD4680BD80B582B000AF154B48
:10B844001B7883F00103DBB2002B1ED0124B5B6824
:10B8540003F500537B607B68B3F1807F15D8042225
:10B8640001210E4805F02DFE38603B68002B03D102
:10B874000B4805F0C3FE08E03B687A685A60054B44
:10B8840001221A70386805F06BFE00BF0837BD4608
:10B8940080BD00BFC04C0020604C00209C4C0020A8
:10B8A400E832002080B582B000AF082202210E48A1
:10B8B40005F007FE78607B68002B03D10B4805F088
:10B8C4009DFE0DE07B6804333B60094B9A683B683E
:10B8D4001A60074B1A7B3B681A71786805F040FEC2
:10B8E40000BF0837BD4680BD9C4C0020F8320020C4
:10B8F400604C002080B592B000AFF860B960134688
:10B90400FB71FB79002B17D1BB685B88012B31D10C
:10B914001A4B1B7883F00103DBB2002B04D07B4667
:10B924007B64786CFBF77EFDBB685B68144A5360EC
:10B93400124B00221A701DE0FB79032B04D07B46C6
:10B944003B64386CFBF76EFD07F114032C220021D5
:10B95400184623F0BDFB10233B75BB68FB61094B04
:10B96400DB687B62074B1B69BB6207F11403184653
:10B97400FEF700FB00BF4837BD4680BDC04C002029
:10B98400604C00209C4C002080B586B000AF3B4644
:10B9940018220021184623F09BFB0023BB6000F013
:10B9A400A7F803463B6001237B60084BFB603B46E2
:10B9B4001946074805F06CFC0346002B02D00548E5
:10B9C40005F01CFE00BF1837BD4680BDF9B8020063
:10B9D4009C4C00200833002080B584B000AFFFF7F2
:10B9E40073FD02F08DFE0023FB600023BB60002288
:10B9F4000021294805F000FD786014E07B685B882D
:10BA0400012B06D0022B00D007E07B680433FB60D7
:10BA140003E07B680433BB6000BF7A6800211E48E2
:10BA240005F0EAFC78607B68002BE7D1FB68002B0B
:10BA340002D0BB68002B0BD1184B00221A60174BA5
:10BA440000229A60154B00221A73FFF72BFF17E0B0
:10BA5400FB681B68114A9360FB681A790F4B1A73D1
:10BA6400BA68FB689A4207D2FB681B79002B03D1A2
:10BA74000A4B00221A6003E0BB681B68074A136084
:10BA8400064B1B68054A5360FFF7D6FE02F062FEC0
:10BA940000BF1037BD4680BD9C4C0020604C002088
:10BAA40080B500AF01210E4805F06BFD0346002B65
:10BAB4000FD102210A4805F064FD0346002B08D18A
:10BAC40014220021074823F003FB074B00221A70BD
